{
  "_format": "hh-sol-artifact-1",
  "contractName": "DrivenByVolatility",
  "sourceName": "contracts/DrivenByVolatility.sol",
  "abi": [
    {
      "inputs": [
        {
          "internalType": "string",
          "name": "initBaseURI",
          "type": "string"
        },
        {
          "internalType": "string",
          "name": "initContractURI",
          "type": "string"
        },
        {
          "internalType": "uint256",
          "name": "_maxSupply",
          "type": "uint256"
        }
      ],
      "stateMutability": "nonpayable",
      "type": "constructor"
    },
    {
      "inputs": [],
      "name": "ApprovalCallerNotOwnerNorApproved",
      "type": "error"
    },
    {
      "inputs": [],
      "name": "ApprovalQueryForNonexistentToken",
      "type": "error"
    },
    {
      "inputs": [],
      "name": "BalanceQueryForZeroAddress",
      "type": "error"
    },
    {
      "inputs": [],
      "name": "MintERC2309QuantityExceedsLimit",
      "type": "error"
    },
    {
      "inputs": [],
      "name": "MintToZeroAddress",
      "type": "error"
    },
    {
      "inputs": [],
      "name": "MintZeroQuantity",
      "type": "error"
    },
    {
      "inputs": [],
      "name": "OwnerQueryForNonexistentToken",
      "type": "error"
    },
    {
      "inputs": [],
      "name": "OwnershipNotInitializedForExtraData",
      "type": "error"
    },
    {
      "inputs": [],
      "name": "TransferCallerNotOwnerNorApproved",
      "type": "error"
    },
    {
      "inputs": [],
      "name": "TransferFromIncorrectOwner",
      "type": "error"
    },
    {
      "inputs": [],
      "name": "TransferToNonERC721ReceiverImplementer",
      "type": "error"
    },
    {
      "inputs": [],
      "name": "TransferToZeroAddress",
      "type": "error"
    },
    {
      "inputs": [],
      "name": "URIQueryForNonexistentToken",
      "type": "error"
    },
    {
      "anonymous": false,
      "inputs": [
        {
          "indexed": false,
          "internalType": "address",
          "name": "minter",
          "type": "address"
        },
        {
          "indexed": false,
          "internalType": "address",
          "name": "recipient",
          "type": "address"
        },
        {
          "indexed": false,
          "internalType": "uint256",
          "name": "amount",
          "type": "uint256"
        }
      ],
      "name": "AirdroppedToken",
      "type": "event"
    },
    {
      "anonymous": false,
      "inputs": [
        {
          "indexed": true,
          "internalType": "address",
          "name": "owner",
          "type": "address"
        },
        {
          "indexed": true,
          "internalType": "address",
          "name": "approved",
          "type": "address"
        },
        {
          "indexed": true,
          "internalType": "uint256",
          "name": "tokenId",
          "type": "uint256"
        }
      ],
      "name": "Approval",
      "type": "event"
    },
    {
      "anonymous": false,
      "inputs": [
        {
          "indexed": true,
          "internalType": "address",
          "name": "owner",
          "type": "address"
        },
        {
          "indexed": true,
          "internalType": "address",
          "name": "operator",
          "type": "address"
        },
        {
          "indexed": false,
          "internalType": "bool",
          "name": "approved",
          "type": "bool"
        }
      ],
      "name": "ApprovalForAll",
      "type": "event"
    },
    {
      "anonymous": false,
      "inputs": [
        {
          "indexed": false,
          "internalType": "string",
          "name": "newBaseURI",
          "type": "string"
        }
      ],
      "name": "BaseURIChanged",
      "type": "event"
    },
    {
      "anonymous": false,
      "inputs": [
        {
          "indexed": true,
          "internalType": "uint256",
          "name": "fromTokenId",
          "type": "uint256"
        },
        {
          "indexed": false,
          "internalType": "uint256",
          "name": "toTokenId",
          "type": "uint256"
        },
        {
          "indexed": true,
          "internalType": "address",
          "name": "from",
          "type": "address"
        },
        {
          "indexed": true,
          "internalType": "address",
          "name": "to",
          "type": "address"
        }
      ],
      "name": "ConsecutiveTransfer",
      "type": "event"
    },
    {
      "anonymous": false,
      "inputs": [
        {
          "indexed": false,
          "internalType": "string",
          "name": "newContractURI",
          "type": "string"
        }
      ],
      "name": "ContractURIChanged",
      "type": "event"
    },
    {
      "anonymous": false,
      "inputs": [
        {
          "indexed": true,
          "internalType": "address",
          "name": "previousOwner",
          "type": "address"
        },
        {
          "indexed": true,
          "internalType": "address",
          "name": "newOwner",
          "type": "address"
        }
      ],
      "name": "OwnershipTransferred",
      "type": "event"
    },
    {
      "anonymous": false,
      "inputs": [
        {
          "indexed": false,
          "internalType": "address",
          "name": "redeemer",
          "type": "address"
        },
        {
          "indexed": false,
          "internalType": "uint256",
          "name": "tokenId",
          "type": "uint256"
        },
        {
          "indexed": false,
          "internalType": "string",
          "name": "redemptionId",
          "type": "string"
        }
      ],
      "name": "Redeemed",
      "type": "event"
    },
    {
      "anonymous": false,
      "inputs": [
        {
          "indexed": true,
          "internalType": "address",
          "name": "from",
          "type": "address"
        },
        {
          "indexed": true,
          "internalType": "address",
          "name": "to",
          "type": "address"
        },
        {
          "indexed": true,
          "internalType": "uint256",
          "name": "tokenId",
          "type": "uint256"
        }
      ],
      "name": "Transfer",
      "type": "event"
    },
    {
      "inputs": [
        {
          "internalType": "address[]",
          "name": "recipients",
          "type": "address[]"
        }
      ],
      "name": "airdrop",
      "outputs": [],
      "stateMutability": "nonpayable",
      "type": "function"
    },
    {
      "inputs": [
        {
          "internalType": "address",
          "name": "to",
          "type": "address"
        },
        {
          "internalType": "uint256",
          "name": "tokenId",
          "type": "uint256"
        }
      ],
      "name": "approve",
      "outputs": [],
      "stateMutability": "payable",
      "type": "function"
    },
    {
      "inputs": [
        {
          "internalType": "address",
          "name": "owner",
          "type": "address"
        }
      ],
      "name": "balanceOf",
      "outputs": [
        {
          "internalType": "uint256",
          "name": "",
          "type": "uint256"
        }
      ],
      "stateMutability": "view",
      "type": "function"
    },
    {
      "inputs": [],
      "name": "baseURI",
      "outputs": [
        {
          "internalType": "string",
          "name": "",
          "type": "string"
        }
      ],
      "stateMutability": "view",
      "type": "function"
    },
    {
      "inputs": [],
      "name": "contractURI",
      "outputs": [
        {
          "internalType": "string",
          "name": "",
          "type": "string"
        }
      ],
      "stateMutability": "view",
      "type": "function"
    },
    {
      "inputs": [
        {
          "internalType": "uint256",
          "name": "tokenId",
          "type": "uint256"
        }
      ],
      "name": "getApproved",
      "outputs": [
        {
          "internalType": "address",
          "name": "",
          "type": "address"
        }
      ],
      "stateMutability": "view",
      "type": "function"
    },
    {
      "inputs": [
        {
          "internalType": "uint256",
          "name": "tokenId",
          "type": "uint256"
        }
      ],
      "name": "getOwnershipData",
      "outputs": [
        {
          "components": [
            {
              "internalType": "address",
              "name": "addr",
              "type": "address"
            },
            {
              "internalType": "uint64",
              "name": "startTimestamp",
              "type": "uint64"
            },
            {
              "internalType": "bool",
              "name": "burned",
              "type": "bool"
            },
            {
              "internalType": "uint24",
              "name": "extraData",
              "type": "uint24"
            }
          ],
          "internalType": "struct IERC721A.TokenOwnership",
          "name": "",
          "type": "tuple"
        }
      ],
      "stateMutability": "view",
      "type": "function"
    },
    {
      "inputs": [
        {
          "internalType": "address",
          "name": "owner",
          "type": "address"
        },
        {
          "internalType": "address",
          "name": "operator",
          "type": "address"
        }
      ],
      "name": "isApprovedForAll",
      "outputs": [
        {
          "internalType": "bool",
          "name": "",
          "type": "bool"
        }
      ],
      "stateMutability": "view",
      "type": "function"
    },
    {
      "inputs": [],
      "name": "maxSupply",
      "outputs": [
        {
          "internalType": "uint256",
          "name": "",
          "type": "uint256"
        }
      ],
      "stateMutability": "view",
      "type": "function"
    },
    {
      "inputs": [],
      "name": "name",
      "outputs": [
        {
          "internalType": "string",
          "name": "",
          "type": "string"
        }
      ],
      "stateMutability": "view",
      "type": "function"
    },
    {
      "inputs": [],
      "name": "owner",
      "outputs": [
        {
          "internalType": "address",
          "name": "",
          "type": "address"
        }
      ],
      "stateMutability": "view",
      "type": "function"
    },
    {
      "inputs": [
        {
          "internalType": "uint256",
          "name": "tokenId",
          "type": "uint256"
        }
      ],
      "name": "ownerOf",
      "outputs": [
        {
          "internalType": "address",
          "name": "",
          "type": "address"
        }
      ],
      "stateMutability": "view",
      "type": "function"
    },
    {
      "inputs": [
        {
          "internalType": "uint256",
          "name": "tokenId",
          "type": "uint256"
        },
        {
          "internalType": "string",
          "name": "redemptionId",
          "type": "string"
        }
      ],
      "name": "redeem",
      "outputs": [],
      "stateMutability": "nonpayable",
      "type": "function"
    },
    {
      "inputs": [
        {
          "internalType": "uint256",
          "name": "",
          "type": "uint256"
        }
      ],
      "name": "redeemed",
      "outputs": [
        {
          "internalType": "string",
          "name": "redemptionId",
          "type": "string"
        },
        {
          "internalType": "address",
          "name": "redeemer",
          "type": "address"
        }
      ],
      "stateMutability": "view",
      "type": "function"
    },
    {
      "inputs": [],
      "name": "renounceOwnership",
      "outputs": [],
      "stateMutability": "nonpayable",
      "type": "function"
    },
    {
      "inputs": [
        {
          "internalType": "address",
          "name": "from",
          "type": "address"
        },
        {
          "internalType": "address",
          "name": "to",
          "type": "address"
        },
        {
          "internalType": "uint256",
          "name": "tokenId",
          "type": "uint256"
        }
      ],
      "name": "safeTransferFrom",
      "outputs": [],
      "stateMutability": "payable",
      "type": "function"
    },
    {
      "inputs": [
        {
          "internalType": "address",
          "name": "from",
          "type": "address"
        },
        {
          "internalType": "address",
          "name": "to",
          "type": "address"
        },
        {
          "internalType": "uint256",
          "name": "tokenId",
          "type": "uint256"
        },
        {
          "internalType": "bytes",
          "name": "_data",
          "type": "bytes"
        }
      ],
      "name": "safeTransferFrom",
      "outputs": [],
      "stateMutability": "payable",
      "type": "function"
    },
    {
      "inputs": [
        {
          "internalType": "address",
          "name": "operator",
          "type": "address"
        },
        {
          "internalType": "bool",
          "name": "approved",
          "type": "bool"
        }
      ],
      "name": "setApprovalForAll",
      "outputs": [],
      "stateMutability": "nonpayable",
      "type": "function"
    },
    {
      "inputs": [
        {
          "internalType": "string",
          "name": "newBaseURI",
          "type": "string"
        }
      ],
      "name": "setBaseURI",
      "outputs": [],
      "stateMutability": "nonpayable",
      "type": "function"
    },
    {
      "inputs": [
        {
          "internalType": "string",
          "name": "newContractURI",
          "type": "string"
        }
      ],
      "name": "setContractURI",
      "outputs": [],
      "stateMutability": "nonpayable",
      "type": "function"
    },
    {
      "inputs": [
        {
          "internalType": "bytes4",
          "name": "interfaceId",
          "type": "bytes4"
        }
      ],
      "name": "supportsInterface",
      "outputs": [
        {
          "internalType": "bool",
          "name": "",
          "type": "bool"
        }
      ],
      "stateMutability": "view",
      "type": "function"
    },
    {
      "inputs": [],
      "name": "symbol",
      "outputs": [
        {
          "internalType": "string",
          "name": "",
          "type": "string"
        }
      ],
      "stateMutability": "view",
      "type": "function"
    },
    {
      "inputs": [
        {
          "internalType": "uint256",
          "name": "tokenId",
          "type": "uint256"
        }
      ],
      "name": "tokenURI",
      "outputs": [
        {
          "internalType": "string",
          "name": "",
          "type": "string"
        }
      ],
      "stateMutability": "view",
      "type": "function"
    },
    {
      "inputs": [],
      "name": "totalSupply",
      "outputs": [
        {
          "internalType": "uint256",
          "name": "",
          "type": "uint256"
        }
      ],
      "stateMutability": "view",
      "type": "function"
    },
    {
      "inputs": [
        {
          "internalType": "address",
          "name": "from",
          "type": "address"
        },
        {
          "internalType": "address",
          "name": "to",
          "type": "address"
        },
        {
          "internalType": "uint256",
          "name": "tokenId",
          "type": "uint256"
        }
      ],
      "name": "transferFrom",
      "outputs": [],
      "stateMutability": "payable",
      "type": "function"
    },
    {
      "inputs": [
        {
          "internalType": "address",
          "name": "newOwner",
          "type": "address"
        }
      ],
      "name": "transferOwnership",
      "outputs": [],
      "stateMutability": "nonpayable",
      "type": "function"
    }
  ],
  "bytecode": "0x60a06040523480156200001157600080fd5b5060405162002344380380620023448339810160408190526200003491620001ee565b6040518060400160405280601281526020017164726976656e4279566f6c6174696c69747960701b8152506040518060400160405280600381526020016232313b60e91b81525081600290816200008c9190620002f0565b5060036200009b8282620002f0565b50506000805550620000ad33620000d7565b6009620000bb8482620002f0565b50600a620000ca8382620002f0565b5060805250620003bc9050565b600880546001600160a01b038381166001600160a01b0319831681179093556040519116919082907f8be0079c531659141344cd1fd0a4f28419497f9722a3daafe3b4186f6b6457e090600090a35050565b634e487b7160e01b600052604160045260246000fd5b600082601f8301126200015157600080fd5b81516001600160401b03808211156200016e576200016e62000129565b604051601f8301601f19908116603f0116810190828211818310171562000199576200019962000129565b81604052838152602092508683858801011115620001b657600080fd5b600091505b83821015620001da5785820183015181830184015290820190620001bb565b600093810190920192909252949350505050565b6000806000606084860312156200020457600080fd5b83516001600160401b03808211156200021c57600080fd5b6200022a878388016200013f565b945060208601519150808211156200024157600080fd5b5062000250868287016200013f565b925050604084015190509250925092565b600181811c908216806200027657607f821691505b6020821081036200029757634e487b7160e01b600052602260045260246000fd5b50919050565b601f821115620002eb57600081815260208120601f850160051c81016020861015620002c65750805b601f850160051c820191505b81811015620002e757828155600101620002d2565b5050505b505050565b81516001600160401b038111156200030c576200030c62000129565b62000324816200031d845462000261565b846200029d565b602080601f8311600181146200035c5760008415620003435750858301515b600019600386901b1c1916600185901b178555620002e7565b600085815260208120601f198616915b828110156200038d578886015182559484019460019091019084016200036c565b5085821015620003ac5787850151600019600388901b60f8161c191681555b5050505050600190811b01905550565b608051611f65620003df600039600081816104b00152610d4e0152611f656000f3fe6080604052600436106101a15760003560e01c8063729ad39e116100e1578063a22cb4651161008a578063d5abeb0111610064578063d5abeb011461049e578063e8a3d485146104d2578063e985e9c5146104e7578063f2fde38b1461053057600080fd5b8063a22cb4651461044b578063b88d4fde1461046b578063c87b56dd1461047e57600080fd5b80639231ab2a116100bb5780639231ab2a146103a9578063938e3d7b1461041657806395d89b411461043657600080fd5b8063729ad39e1461033d5780637ed0f1c11461035d5780638da5cb5b1461038b57600080fd5b806324b76fd51161014e5780636352211e116101285780636352211e146102d35780636c0360eb146102f357806370a0823114610308578063715018a61461032857600080fd5b806324b76fd51461028057806342842e0e146102a057806355f804b3146102b357600080fd5b8063095ea7b31161017f578063095ea7b31461023557806318160ddd1461024a57806323b872dd1461026d57600080fd5b806301ffc9a7146101a657806306fdde03146101db578063081812fc146101fd575b600080fd5b3480156101b257600080fd5b506101c66101c136600461174d565b610550565b60405190151581526020015b60405180910390f35b3480156101e757600080fd5b506101f06105ed565b6040516101d291906117ba565b34801561020957600080fd5b5061021d6102183660046117cd565b61067f565b6040516001600160a01b0390911681526020016101d2565b610248610243366004611802565b6106dc565b005b34801561025657600080fd5b50600154600054035b6040519081526020016101d2565b61024861027b36600461182c565b6107bf565b34801561028c57600080fd5b5061024861029b3660046118b1565b6109c1565b6102486102ae36600461182c565b610bbc565b3480156102bf57600080fd5b506102486102ce3660046118fd565b610bdc565b3480156102df57600080fd5b5061021d6102ee3660046117cd565b610c2f565b3480156102ff57600080fd5b506101f0610c3a565b34801561031457600080fd5b5061025f61032336600461193f565b610cc8565b34801561033457600080fd5b50610248610d30565b34801561034957600080fd5b506102486103583660046119a1565b610d44565b34801561036957600080fd5b5061037d6103783660046117cd565b610f06565b6040516101d2929190611a4e565b34801561039757600080fd5b506008546001600160a01b031661021d565b3480156103b557600080fd5b506103c96103c43660046117cd565b610fb3565b6040516101d2919081516001600160a01b0316815260208083015167ffffffffffffffff169082015260408083015115159082015260609182015162ffffff169181019190915260800190565b34801561042257600080fd5b506102486104313660046118fd565b610fe0565b34801561044257600080fd5b506101f0611027565b34801561045757600080fd5b50610248610466366004611a79565b611036565b610248610479366004611ab5565b6110a2565b34801561048a57600080fd5b506101f06104993660046117cd565b6110ec565b3480156104aa57600080fd5b5061025f7f000000000000000000000000000000000000000000000000000000000000000081565b3480156104de57600080fd5b506101f0611141565b3480156104f357600080fd5b506101c6610502366004611b75565b6001600160a01b03918216600090815260076020908152604080832093909416825291909152205460ff1690565b34801561053c57600080fd5b5061024861054b36600461193f565b61114e565b60007f01ffc9a7000000000000000000000000000000000000000000000000000000006001600160e01b0319831614806105b357507f80ac58cd000000000000000000000000000000000000000000000000000000006001600160e01b03198316145b806105e757507f5b5e139f000000000000000000000000000000000000000000000000000000006001600160e01b03198316145b92915050565b6060600280546105fc90611ba8565b80601f016020809104026020016040519081016040528092919081815260200182805461062890611ba8565b80156106755780601f1061064a57610100808354040283529160200191610675565b820191906000526020600020905b81548152906001019060200180831161065857829003601f168201915b5050505050905090565b600061068a826111de565b6106c0576040517fcf4700e400000000000000000000000000000000000000000000000000000000815260040160405180910390fd5b506000908152600660205260409020546001600160a01b031690565b60006106e782610c2f565b9050336001600160a01b03821614610756576001600160a01b038116600090815260076020908152604080832033845290915290205460ff16610756576040517fcfb3b94200000000000000000000000000000000000000000000000000000000815260040160405180910390fd5b600082815260066020526040808220805473ffffffffffffffffffffffffffffffffffffffff19166001600160a01b0387811691821790925591518593918516917f8c5be1e5ebec7d5bd14f71427d1e84f3dd0314c0f7b2291e5b200ac8c7c3b92591a4505050565b60006107ca82611205565b9050836001600160a01b0316816001600160a01b031614610817576040517fa114810000000000000000000000000000000000000000000000000000000000815260040160405180910390fd5b60008281526006602052604090208054338082146001600160a01b0388169091141761089a576001600160a01b038616600090815260076020908152604080832033845290915290205460ff1661089a576040517f59c896be00000000000000000000000000000000000000000000000000000000815260040160405180910390fd5b6001600160a01b0385166108da576040517fea553b3400000000000000000000000000000000000000000000000000000000815260040160405180910390fd5b80156108e557600082555b6001600160a01b038681166000908152600560205260408082208054600019019055918716808252919020805460010190554260a01b17600160e11b17600085815260046020526040812091909155600160e11b84169003610977576001840160008181526004602052604081205490036109755760005481146109755760008181526004602052604090208490555b505b83856001600160a01b0316876001600160a01b03167fddf252ad1be2c89b69c2b068fc378daa952ba7f163c4a11628f55a4df523b3ef60405160405180910390a45b505050505050565b6109ca836111de565b610a1b5760405162461bcd60e51b815260206004820152601460248201527f546f6b656e20646f6573206e6f7420657869737400000000000000000000000060448201526064015b60405180910390fd5b33610a2584611285565b516001600160a01b031614610a7c5760405162461bcd60e51b815260206004820152601f60248201527f546f6b656e206e6f74206f776e6564206279207468652072656465656d6572006044820152606401610a12565b6000838152600b60205260409020600101546001600160a01b031615610ae45760405162461bcd60e51b815260206004820152601660248201527f546f6b656e20616c72656164792072656465656d6564000000000000000000006044820152606401610a12565b6040805160606020601f85018190040282018101835291810183815290918291908590859081908501838280828437600092018290525093855250503360209384015250858152600b9091526040902081518190610b429082611c28565b50602091909101516001909101805473ffffffffffffffffffffffffffffffffffffffff19166001600160a01b039092169190911790556040517f784e131f41825c0f4dedaf1b303cfd417f3603b2e95ed4a0c0bdc2176dbbc3ee90610baf903390869086908690611d11565b60405180910390a1505050565b610bd7838383604051806020016040528060008152506110a2565b505050565b610be46112fd565b6009610bf1828483611d44565b507f5411e8ebf1636d9e83d5fc4900bf80cbac82e8790da2a4c94db4895e889eedf68282604051610c23929190611e04565b60405180910390a15050565b60006105e782611205565b60098054610c4790611ba8565b80601f0160208091040260200160405190810160405280929190818152602001828054610c7390611ba8565b8015610cc05780601f10610c9557610100808354040283529160200191610cc0565b820191906000526020600020905b815481529060010190602001808311610ca357829003601f168201915b505050505081565b60006001600160a01b038216610d0a576040517f8f4eb60400000000000000000000000000000000000000000000000000000000815260040160405180910390fd5b506001600160a01b031660009081526005602052604090205467ffffffffffffffff1690565b610d386112fd565b610d426000611357565b565b610d4c6112fd565b7f00000000000000000000000000000000000000000000000000000000000000008151610d7c6001546000540390565b610d869190611e2e565b1115610dd45760405162461bcd60e51b815260206004820152601360248201527f4d617820737570706c79206578636565646564000000000000000000000000006044820152606401610a12565b805160005b81811015610bd75760006001600160a01b0316838281518110610dfe57610dfe611e41565b60200260200101516001600160a01b031603610e5c5760405162461bcd60e51b815260206004820152600c60248201527f5a65726f206164647265737300000000000000000000000000000000000000006044820152606401610a12565b610e80838281518110610e7157610e71611e41565b602002602001015160016113b6565b7fdb8b3a5c1a772d8d678c1db0986457ca65b809bf656142dcd99e03091c690e5c33848381518110610eb457610eb4611e41565b60200260200101516001604051610eec939291906001600160a01b039384168152919092166020820152604081019190915260600190565b60405180910390a180610efe81611e57565b915050610dd9565b600b60205260009081526040902080548190610f2190611ba8565b80601f0160208091040260200160405190810160405280929190818152602001828054610f4d90611ba8565b8015610f9a5780601f10610f6f57610100808354040283529160200191610f9a565b820191906000526020600020905b815481529060010190602001808311610f7d57829003601f168201915b505050600190930154919250506001600160a01b031682565b6040805160808101825260008082526020820181905291810182905260608101919091526105e782611285565b610fe86112fd565b600a610ff5828483611d44565b507fd5ee5eaf65263bab5d569890714d123ad48a9e54409d35e71d374f3dd300bba08282604051610c23929190611e04565b6060600380546105fc90611ba8565b3360008181526007602090815260408083206001600160a01b03871680855290835292819020805460ff191686151590811790915590519081529192917f17307eab39ab6107e8899845ad3d59bd9653f200f220920489ca2b5937696c31910160405180910390a35050565b6110ad8484846107bf565b6001600160a01b0383163b156110e6576110c9848484846113d4565b6110e6576040516368d2bf6b60e11b815260040160405180910390fd5b50505050565b606060006110f9836114c0565b90506000815111611119576040518060200160405280600081525061113a565b8060405160200161112a9190611e70565b6040516020818303038152906040525b9392505050565b600a8054610c4790611ba8565b6111566112fd565b6001600160a01b0381166111d25760405162461bcd60e51b815260206004820152602660248201527f4f776e61626c653a206e6577206f776e657220697320746865207a65726f206160448201527f64647265737300000000000000000000000000000000000000000000000000006064820152608401610a12565b6111db81611357565b50565b60008054821080156105e7575050600090815260046020526040902054600160e01b161590565b6000816000548110156112535760008181526004602052604081205490600160e01b82169003611251575b8060000361113a575060001901600081815260046020526040902054611230565b505b6040517fdf2d9b4200000000000000000000000000000000000000000000000000000000815260040160405180910390fd5b6040805160808101825260008082526020820181905291810182905260608101919091526105e76112b583611205565b604080516080810182526001600160a01b038316815260a083901c67ffffffffffffffff166020820152600160e01b831615159181019190915260e89190911c606082015290565b6008546001600160a01b03163314610d425760405162461bcd60e51b815260206004820181905260248201527f4f776e61626c653a2063616c6c6572206973206e6f7420746865206f776e65726044820152606401610a12565b600880546001600160a01b0383811673ffffffffffffffffffffffffffffffffffffffff19831681179093556040519116919082907f8be0079c531659141344cd1fd0a4f28419497f9722a3daafe3b4186f6b6457e090600090a35050565b6113d0828260405180602001604052806000815250611546565b5050565b604051630a85bd0160e11b81526000906001600160a01b0385169063150b7a0290611409903390899088908890600401611eb1565b6020604051808303816000875af1925050508015611444575060408051601f3d908101601f1916820190925261144191810190611ee3565b60015b6114a2573d808015611472576040519150601f19603f3d011682016040523d82523d6000602084013e611477565b606091505b50805160000361149a576040516368d2bf6b60e11b815260040160405180910390fd5b805181602001fd5b6001600160e01b031916630a85bd0160e11b1490505b949350505050565b60606114cb826111de565b611501576040517fa14c4b5000000000000000000000000000000000000000000000000000000000815260040160405180910390fd5b600061150b6115b3565b9050805160000361152b576040518060200160405280600081525061113a565b80611535846115c2565b60405160200161112a929190611f00565b6115508383611606565b6001600160a01b0383163b15610bd7576000548281035b61157a60008683806001019450866113d4565b611597576040516368d2bf6b60e11b815260040160405180910390fd5b8181106115675781600054146115ac57600080fd5b5050505050565b6060600980546105fc90611ba8565b606060a06040510180604052602081039150506000815280825b600183039250600a81066030018353600a9004806115dc5750819003601f19909101908152919050565b6000805490829003611644576040517fb562e8dd00000000000000000000000000000000000000000000000000000000815260040160405180910390fd5b6001600160a01b03831660008181526005602090815260408083208054680100000000000000018802019055848352600490915281206001851460e11b4260a01b178317905582840190839083907fddf252ad1be2c89b69c2b068fc378daa952ba7f163c4a11628f55a4df523b3ef8180a4600183015b8181146116f357808360007fddf252ad1be2c89b69c2b068fc378daa952ba7f163c4a11628f55a4df523b3ef600080a46001016116bb565b508160000361172e576040517f2e07630000000000000000000000000000000000000000000000000000000000815260040160405180910390fd5b60005550505050565b6001600160e01b0319811681146111db57600080fd5b60006020828403121561175f57600080fd5b813561113a81611737565b60005b8381101561178557818101518382015260200161176d565b50506000910152565b600081518084526117a681602086016020860161176a565b601f01601f19169290920160200192915050565b60208152600061113a602083018461178e565b6000602082840312156117df57600080fd5b5035919050565b80356001600160a01b03811681146117fd57600080fd5b919050565b6000806040838503121561181557600080fd5b61181e836117e6565b946020939093013593505050565b60008060006060848603121561184157600080fd5b61184a846117e6565b9250611858602085016117e6565b9150604084013590509250925092565b60008083601f84011261187a57600080fd5b50813567ffffffffffffffff81111561189257600080fd5b6020830191508360208285010111156118aa57600080fd5b9250929050565b6000806000604084860312156118c657600080fd5b83359250602084013567ffffffffffffffff8111156118e457600080fd5b6118f086828701611868565b9497909650939450505050565b6000806020838503121561191057600080fd5b823567ffffffffffffffff81111561192757600080fd5b61193385828601611868565b90969095509350505050565b60006020828403121561195157600080fd5b61113a826117e6565b634e487b7160e01b600052604160045260246000fd5b604051601f8201601f1916810167ffffffffffffffff811182821017156119995761199961195a565b604052919050565b600060208083850312156119b457600080fd5b823567ffffffffffffffff808211156119cc57600080fd5b818501915085601f8301126119e057600080fd5b8135818111156119f2576119f261195a565b8060051b9150611a03848301611970565b8181529183018401918481019088841115611a1d57600080fd5b938501935b83851015611a4257611a33856117e6565b82529385019390850190611a22565b98975050505050505050565b604081526000611a61604083018561178e565b90506001600160a01b03831660208301529392505050565b60008060408385031215611a8c57600080fd5b611a95836117e6565b915060208301358015158114611aaa57600080fd5b809150509250929050565b60008060008060808587031215611acb57600080fd5b611ad4856117e6565b93506020611ae38187016117e6565b935060408601359250606086013567ffffffffffffffff80821115611b0757600080fd5b818801915088601f830112611b1b57600080fd5b813581811115611b2d57611b2d61195a565b611b3f601f8201601f19168501611970565b91508082528984828501011115611b5557600080fd5b808484018584013760008482840101525080935050505092959194509250565b60008060408385031215611b8857600080fd5b611b91836117e6565b9150611b9f602084016117e6565b90509250929050565b600181811c90821680611bbc57607f821691505b602082108103611bdc57634e487b7160e01b600052602260045260246000fd5b50919050565b601f821115610bd757600081815260208120601f850160051c81016020861015611c095750805b601f850160051c820191505b818110156109b957828155600101611c15565b815167ffffffffffffffff811115611c4257611c4261195a565b611c5681611c508454611ba8565b84611be2565b602080601f831160018114611c8b5760008415611c735750858301515b600019600386901b1c1916600185901b1785556109b9565b600085815260208120601f198616915b82811015611cba57888601518255948401946001909101908401611c9b565b5085821015611cd85787850151600019600388901b60f8161c191681555b5050505050600190811b01905550565b81835281816020850137506000828201602090810191909152601f909101601f19169091010190565b6001600160a01b0385168152836020820152606060408201526000611d3a606083018486611ce8565b9695505050505050565b67ffffffffffffffff831115611d5c57611d5c61195a565b611d7083611d6a8354611ba8565b83611be2565b6000601f841160018114611da45760008515611d8c5750838201355b600019600387901b1c1916600186901b1783556115ac565b600083815260209020601f19861690835b82811015611dd55786850135825560209485019460019092019101611db5565b5086821015611df25760001960f88860031b161c19848701351681555b505060018560011b0183555050505050565b6020815260006114b8602083018486611ce8565b634e487b7160e01b600052601160045260246000fd5b808201808211156105e7576105e7611e18565b634e487b7160e01b600052603260045260246000fd5b600060018201611e6957611e69611e18565b5060010190565b60008251611e8281846020870161176a565b7f2e6a736f6e000000000000000000000000000000000000000000000000000000920191825250600501919050565b60006001600160a01b03808716835280861660208401525083604083015260806060830152611d3a608083018461178e565b600060208284031215611ef557600080fd5b815161113a81611737565b60008351611f1281846020880161176a565b835190830190611f2681836020880161176a565b0194935050505056fea2646970667358221220a8fca02d75862367b7f4d79fc2d584b746e5d63f0ca0f786be62a929048c982c64736f6c63430008110033",
  "linkReferences": {},
  "deployedLinkReferences": {}
}